{
  "transactions": [
    {
      "hash": "0xe037dc9757a58e9c8661f766a7af8db59f4f1ddbfb09f73d8200c8203d2eb7cc",
      "transactionType": "CREATE",
      "contractName": "CounterV2",
      "contractAddress": "0x8ffd1d8a37ae95466020dab33973dbadfb423454",
      "function": null,
      "arguments": null,
      "transaction": {
        "from": "0x3d728ff92f92d4c9e6642166fabbef5c90c6d0ab",
        "gas": "0xe3de9",
        "value": "0x0",
        "input": "0x60a060405230608052348015610013575f5ffd5b5061001c610021565b6100d3565b7ff0c57e16840df040f15088dc2f81fe391c3923bec73e23a9662efc9c229c6a00805468010000000000000000900460ff16156100715760405163f92ee8a960e01b815260040160405180910390fd5b80546001600160401b03908116146100d05780546001600160401b0319166001600160401b0390811782556040519081527fc7f505b2f371ae2175ee4913f4499e1f2633a7b5936321eed1cdaeb6115181d29060200160405180910390a15b50565b608051610b8b6100f95f395f81816104d80152818161050101526106450152610b8b5ff3fe6080604052600436106100a5575f3560e01c80638da5cb5b116100625780638da5cb5b14610135578063ad3cb1cc1461017b578063c598f107146101b8578063d09de08a146101cd578063d826f88f146101e1578063f2fde38b146101f5575f5ffd5b806306661abd146100a95780634f1ef286146100d057806352d1902d146100e55780635cd8a76b146100f9578063715018a61461010d5780638129fc1c14610121575b5f5ffd5b3480156100b4575f5ffd5b506100bd5f5481565b6040519081526020015b60405180910390f35b6100e36100de3660046109d7565b610214565b005b3480156100f0575f5ffd5b506100bd610233565b348015610104575f5ffd5b506100e361024e565b348015610118575f5ffd5b506100e3610309565b34801561012c575f5ffd5b506100e361031c565b348015610140575f5ffd5b507f9016d09d72d40fdae2fd8ceac6b6234c7706214fd39c1cd1e609a0528c199300546040516001600160a01b0390911681526020016100c7565b348015610186575f5ffd5b506101ab604051806040016040528060058152602001640352e302e360dc1b81525081565b6040516100c79190610a9b565b3480156101c3575f5ffd5b506100bd60015481565b3480156101d8575f5ffd5b506100e361041f565b3480156101ec575f5ffd5b506100e361046c565b348015610200575f5ffd5b506100e361020f366004610ad0565b61048b565b61021c6104cd565b61022582610571565b61022f8282610579565b5050565b5f61023c61063a565b505f516020610b365f395f51905f5290565b60025f610259610683565b8054909150600160401b900460ff16806102815750805467ffffffffffffffff808416911610155b1561029f5760405163f92ee8a960e01b815260040160405180910390fd5b805468ffffffffffffffffff191667ffffffffffffffff8316908117600160401b1782555f600155815460ff60401b191682556040519081527fc7f505b2f371ae2175ee4913f4499e1f2633a7b5936321eed1cdaeb6115181d29060200160405180910390a15050565b6103116106ad565b61031a5f610708565b565b5f610325610683565b805490915060ff600160401b820416159067ffffffffffffffff165f8115801561034c5750825b90505f8267ffffffffffffffff1660011480156103685750303b155b905081158015610376575080155b156103945760405163f92ee8a960e01b815260040160405180910390fd5b845467ffffffffffffffff1916600117855583156103be57845460ff60401b1916600160401b1785555b6103c733610778565b6103cf610789565b5f8055831561041857845460ff60401b19168555604051600181527fc7f505b2f371ae2175ee4913f4499e1f2633a7b5936321eed1cdaeb6115181d29060200160405180910390a15b5050505050565b60015f5f8282546104309190610ae9565b90915550505f546040519081527f06bef5f47a1a400f9ceb1f3700a329a4ced09a400f88dd3230d93e4c104c907f9060200160405180910390a1565b6104746106ad565b5f5f819055506001805f8282546104309190610ae9565b6104936106ad565b6001600160a01b0381166104c157604051631e4fbdf760e01b81525f60048201526024015b60405180910390fd5b6104ca81610708565b50565b306001600160a01b037f000000000000000000000000000000000000000000000000000000000000000016148061055357507f00000000000000000000000000000000000000000000000000000000000000006001600160a01b03166105475f516020610b365f395f51905f52546001600160a01b031690565b6001600160a01b031614155b1561031a5760405163703e46dd60e11b815260040160405180910390fd5b6104ca6106ad565b816001600160a01b03166352d1902d6040518163ffffffff1660e01b8152600401602060405180830381865afa9250505080156105d3575060408051601f3d908101601f191682019092526105d091810190610b08565b60015b6105fb57604051634c9c8ce360e01b81526001600160a01b03831660048201526024016104b8565b5f516020610b365f395f51905f52811461062b57604051632a87526960e21b8152600481018290526024016104b8565b6106358383610791565b505050565b306001600160a01b037f0000000000000000000000000000000000000000000000000000000000000000161461031a5760405163703e46dd60e11b815260040160405180910390fd5b5f807ff0c57e16840df040f15088dc2f81fe391c3923bec73e23a9662efc9c229c6a005b92915050565b336106df7f9016d09d72d40fdae2fd8ceac6b6234c7706214fd39c1cd1e609a0528c199300546001600160a01b031690565b6001600160a01b03161461031a5760405163118cdaa760e01b81523360048201526024016104b8565b7f9016d09d72d40fdae2fd8ceac6b6234c7706214fd39c1cd1e609a0528c19930080546001600160a01b031981166001600160a01b03848116918217845560405192169182907f8be0079c531659141344cd1fd0a4f28419497f9722a3daafe3b4186f6b6457e0905f90a3505050565b6107806107e6565b6104ca8161080b565b61031a6107e6565b61079a82610813565b6040516001600160a01b038316907fbc7cd75a20ee27fd9adebab32041f755214dbc6bffa90cc0225b39da2e5c2d3b905f90a28051156107de576106358282610876565b61022f6108e8565b6107ee610907565b61031a57604051631afcd79f60e31b815260040160405180910390fd5b6104936107e6565b806001600160a01b03163b5f0361084857604051634c9c8ce360e01b81526001600160a01b03821660048201526024016104b8565b5f516020610b365f395f51905f5280546001600160a01b0319166001600160a01b0392909216919091179055565b60605f5f846001600160a01b0316846040516108929190610b1f565b5f60405180830381855af49150503d805f81146108ca576040519150601f19603f3d011682016040523d82523d5f602084013e6108cf565b606091505b50915091506108df858383610920565b95945050505050565b341561031a5760405163b398979f60e01b815260040160405180910390fd5b5f610910610683565b54600160401b900460ff16919050565b606082610935576109308261097f565b610978565b815115801561094c57506001600160a01b0384163b155b1561097557604051639996b31560e01b81526001600160a01b03851660048201526024016104b8565b50805b9392505050565b80511561098f5780518082602001fd5b60405163d6bda27560e01b815260040160405180910390fd5b80356001600160a01b03811681146109be575f5ffd5b919050565b634e487b7160e01b5f52604160045260245ffd5b5f5f604083850312156109e8575f5ffd5b6109f1836109a8565b9150602083013567ffffffffffffffff811115610a0c575f5ffd5b8301601f81018513610a1c575f5ffd5b803567ffffffffffffffff811115610a3657610a366109c3565b604051601f8201601f19908116603f0116810167ffffffffffffffff81118282101715610a6557610a656109c3565b604052818152828201602001871015610a7c575f5ffd5b816020840160208301375f602083830101528093505050509250929050565b602081525f82518060208401528060208501604085015e5f604082850101526040601f19601f83011684010191505092915050565b5f60208284031215610ae0575f5ffd5b610978826109a8565b808201808211156106a757634e487b7160e01b5f52601160045260245ffd5b5f60208284031215610b18575f5ffd5b5051919050565b5f82518060208501845e5f92019182525091905056fe360894a13ba1a3210667c828492db98dca3e2076cc3735a920a3ca505d382bbca2646970667358221220822ee9372e0d6bd959e451dda7841f16aa803c471193a9e1c220ce14e942a66464736f6c634300081e0033",
        "nonce": "0x61",
        "chainId": "0xaa36a7"
      },
      "additionalContracts": [],
      "isFixedGasLimit": false
    },
    {
      "hash": "0x58f3664deaac6a8d2d31fef30099db8ddbc83799b61cc6fe6dd56fb9fd0d421b",
      "transactionType": "CALL",
      "contractName": null,
      "contractAddress": "0x25f538b858601d4d65a0998417cc11deef145775",
      "function": "upgradeToAndCall(address,bytes)",
      "arguments": [
        "0x8fFD1D8A37AE95466020DaB33973DBAdfb423454",
        "0x5cd8a76b"
      ],
      "transaction": {
        "from": "0x3d728ff92f92d4c9e6642166fabbef5c90c6d0ab",
        "to": "0x25f538b858601d4d65a0998417cc11deef145775",
        "gas": "0xffb1",
        "value": "0x0",
        "input": "0x4f1ef2860000000000000000000000008ffd1d8a37ae95466020dab33973dbadfb423454000000000000000000000000000000000000000000000000000000000000004000000000000000000000000000000000000000000000000000000000000000045cd8a76b00000000000000000000000000000000000000000000000000000000",
        "nonce": "0x62",
        "chainId": "0xaa36a7"
      },
      "additionalContracts": [],
      "isFixedGasLimit": false
    }
  ],
  "receipts": [
    {
      "status": "0x1",
      "cumulativeGasUsed": "0x15eafa6",
      "logs": [
        {
          "address": "0x8ffd1d8a37ae95466020dab33973dbadfb423454",
          "topics": [
            "0xc7f505b2f371ae2175ee4913f4499e1f2633a7b5936321eed1cdaeb6115181d2"
          ],
          "data": "0x000000000000000000000000000000000000000000000000ffffffffffffffff",
          "blockHash": "0xedcf2496a2b6a4ead38ccc4f3a2b6428efe787151af3e50430c9a5625a887a40",
          "blockNumber": "0x855e8e",
          "transactionHash": "0xe037dc9757a58e9c8661f766a7af8db59f4f1ddbfb09f73d8200c8203d2eb7cc",
          "transactionIndex": "0x11a",
          "logIndex": "0x1ba",
          "removed": false
        }
      ],
      "logsBloom": "0x00000000000000000000000000000000000000000000000000000000000000000000000000000000000000000000000000000000000000000000000000000000000000000000000000000000000000000000000000000000000000000000000000000000000000000000000000000000000000000000000000000000000000040040000000000000000800000000000000000000000080000000000000000000000000000000000000000000000000000000000000000000000000000000000000000000000000000000000000000000000000000004000000000000000000000000000000000000000000000000000000000000000000004000000000000000",
      "type": "0x2",
      "transactionHash": "0xe037dc9757a58e9c8661f766a7af8db59f4f1ddbfb09f73d8200c8203d2eb7cc",
      "transactionIndex": "0x11a",
      "blockHash": "0xedcf2496a2b6a4ead38ccc4f3a2b6428efe787151af3e50430c9a5625a887a40",
      "blockNumber": "0x855e8e",
      "gasUsed": "0xaf48c",
      "effectiveGasPrice": "0x19d82b",
      "from": "0x3d728ff92f92d4c9e6642166fabbef5c90c6d0ab",
      "to": null,
      "contractAddress": "0x8ffd1d8a37ae95466020dab33973dbadfb423454"
    },
    {
      "status": "0x1",
      "cumulativeGasUsed": "0x1609064",
      "logs": [
        {
          "address": "0x25f538b858601d4d65a0998417cc11deef145775",
          "topics": [
            "0xbc7cd75a20ee27fd9adebab32041f755214dbc6bffa90cc0225b39da2e5c2d3b",
            "0x0000000000000000000000008ffd1d8a37ae95466020dab33973dbadfb423454"
          ],
          "data": "0x",
          "blockHash": "0xedcf2496a2b6a4ead38ccc4f3a2b6428efe787151af3e50430c9a5625a887a40",
          "blockNumber": "0x855e8e",
          "transactionHash": "0x58f3664deaac6a8d2d31fef30099db8ddbc83799b61cc6fe6dd56fb9fd0d421b",
          "transactionIndex": "0x11e",
          "logIndex": "0x1bc",
          "removed": false
        },
        {
          "address": "0x25f538b858601d4d65a0998417cc11deef145775",
          "topics": [
            "0xc7f505b2f371ae2175ee4913f4499e1f2633a7b5936321eed1cdaeb6115181d2"
          ],
          "data": "0x0000000000000000000000000000000000000000000000000000000000000002",
          "blockHash": "0xedcf2496a2b6a4ead38ccc4f3a2b6428efe787151af3e50430c9a5625a887a40",
          "blockNumber": "0x855e8e",
          "transactionHash": "0x58f3664deaac6a8d2d31fef30099db8ddbc83799b61cc6fe6dd56fb9fd0d421b",
          "transactionIndex": "0x11e",
          "logIndex": "0x1bd",
          "removed": false
        }
      ],
      "logsBloom": "0x00000000000000000000000000000000400000000000000000000000000000000000000000000000000000000000000000001000000000000000000000000000000000000000000000000000000002000000000000000000000000000040000000000000000000000000000000000000000000010000000000000000000001000000000000000000000800000000000008000000000080000000000000000000000000000000000000000000000000000000000000000000000000000000000000000020000000000000000000000000000000000004000000000000000000000020000000000000000000000000000000000000000000000000000000000000",
      "type": "0x2",
      "transactionHash": "0x58f3664deaac6a8d2d31fef30099db8ddbc83799b61cc6fe6dd56fb9fd0d421b",
      "transactionIndex": "0x11e",
      "blockHash": "0xedcf2496a2b6a4ead38ccc4f3a2b6428efe787151af3e50430c9a5625a887a40",
      "blockNumber": "0x855e8e",
      "gasUsed": "0xb91f",
      "effectiveGasPrice": "0x19d82b",
      "from": "0x3d728ff92f92d4c9e6642166fabbef5c90c6d0ab",
      "to": "0x25f538b858601d4d65a0998417cc11deef145775",
      "contractAddress": null
    }
  ],
  "libraries": [],
  "pending": [],
  "returns": {},
  "timestamp": 1752233619,
  "chain": 11155111,
  "commit": "7eaff65"
}